{
  "_format": "hh-sol-artifact-1",
  "contractName": "RepairPassport",
  "sourceName": "contracts/RepairPassport.sol",
  "abi": [
    {
      "inputs": [],
      "stateMutability": "nonpayable",
      "type": "constructor"
    },
    {
      "anonymous": false,
      "inputs": [
        {
          "indexed": true,
          "internalType": "string",
          "name": "productId",
          "type": "string"
        },
        {
          "indexed": true,
          "internalType": "address",
          "name": "fromOwner",
          "type": "address"
        },
        {
          "indexed": true,
          "internalType": "address",
          "name": "toOwner",
          "type": "address"
        },
        {
          "indexed": false,
          "internalType": "uint256",
          "name": "timestamp",
          "type": "uint256"
        },
        {
          "indexed": false,
          "internalType": "uint256",
          "name": "blockNumber",
          "type": "uint256"
        }
      ],
      "name": "OwnershipTransferred",
      "type": "event"
    },
    {
      "anonymous": false,
      "inputs": [
        {
          "indexed": true,
          "internalType": "string",
          "name": "productId",
          "type": "string"
        },
        {
          "indexed": false,
          "internalType": "string",
          "name": "brand",
          "type": "string"
        },
        {
          "indexed": false,
          "internalType": "string",
          "name": "city",
          "type": "string"
        },
        {
          "indexed": true,
          "internalType": "address",
          "name": "owner",
          "type": "address"
        },
        {
          "indexed": false,
          "internalType": "uint256",
          "name": "timestamp",
          "type": "uint256"
        },
        {
          "indexed": false,
          "internalType": "uint256",
          "name": "blockNumber",
          "type": "uint256"
        }
      ],
      "name": "ProductRegistered",
      "type": "event"
    },
    {
      "anonymous": false,
      "inputs": [
        {
          "indexed": true,
          "internalType": "string",
          "name": "productId",
          "type": "string"
        },
        {
          "indexed": true,
          "internalType": "address",
          "name": "repairer",
          "type": "address"
        },
        {
          "indexed": false,
          "internalType": "string",
          "name": "repairCenter",
          "type": "string"
        },
        {
          "indexed": false,
          "internalType": "string",
          "name": "partReplaced",
          "type": "string"
        },
        {
          "indexed": false,
          "internalType": "string",
          "name": "ipfsHash",
          "type": "string"
        },
        {
          "indexed": false,
          "internalType": "uint256",
          "name": "timestamp",
          "type": "uint256"
        },
        {
          "indexed": false,
          "internalType": "bool",
          "name": "customerReported",
          "type": "bool"
        },
        {
          "indexed": false,
          "internalType": "uint256",
          "name": "blockNumber",
          "type": "uint256"
        }
      ],
      "name": "RepairLogged",
      "type": "event"
    },
    {
      "anonymous": false,
      "inputs": [
        {
          "indexed": true,
          "internalType": "address",
          "name": "user",
          "type": "address"
        },
        {
          "indexed": false,
          "internalType": "enum RepairPassport.Role",
          "name": "role",
          "type": "uint8"
        }
      ],
      "name": "RoleAssigned",
      "type": "event"
    },
    {
      "inputs": [],
      "name": "admin",
      "outputs": [
        {
          "internalType": "address",
          "name": "",
          "type": "address"
        }
      ],
      "stateMutability": "view",
      "type": "function"
    },
    {
      "inputs": [
        {
          "internalType": "address",
          "name": "_user",
          "type": "address"
        },
        {
          "internalType": "enum RepairPassport.Role",
          "name": "_role",
          "type": "uint8"
        },
        {
          "internalType": "string",
          "name": "_name",
          "type": "string"
        }
      ],
      "name": "assignRole",
      "outputs": [],
      "stateMutability": "nonpayable",
      "type": "function"
    },
    {
      "inputs": [],
      "name": "getAllProductIds",
      "outputs": [
        {
          "internalType": "string[]",
          "name": "",
          "type": "string[]"
        }
      ],
      "stateMutability": "view",
      "type": "function"
    },
    {
      "inputs": [
        {
          "internalType": "string",
          "name": "_productId",
          "type": "string"
        }
      ],
      "name": "getProduct",
      "outputs": [
        {
          "components": [
            {
              "internalType": "string",
              "name": "productId",
              "type": "string"
            },
            {
              "internalType": "string",
              "name": "brand",
              "type": "string"
            },
            {
              "internalType": "string",
              "name": "city",
              "type": "string"
            },
            {
              "internalType": "address",
              "name": "owner",
              "type": "address"
            },
            {
              "internalType": "address",
              "name": "manufacturer",
              "type": "address"
            },
            {
              "internalType": "uint256",
              "name": "registeredAt",
              "type": "uint256"
            },
            {
              "internalType": "bool",
              "name": "exists",
              "type": "bool"
            },
            {
              "internalType": "uint256",
              "name": "repairCount",
              "type": "uint256"
            },
            {
              "internalType": "uint256",
              "name": "transferCount",
              "type": "uint256"
            }
          ],
          "internalType": "struct RepairPassport.Product",
          "name": "",
          "type": "tuple"
        }
      ],
      "stateMutability": "view",
      "type": "function"
    },
    {
      "inputs": [],
      "name": "getProductCount",
      "outputs": [
        {
          "internalType": "uint256",
          "name": "",
          "type": "uint256"
        }
      ],
      "stateMutability": "view",
      "type": "function"
    },
    {
      "inputs": [
        {
          "internalType": "string",
          "name": "_productId",
          "type": "string"
        }
      ],
      "name": "getRepairs",
      "outputs": [
        {
          "components": [
            {
              "internalType": "string",
              "name": "productId",
              "type": "string"
            },
            {
              "internalType": "address",
              "name": "repairer",
              "type": "address"
            },
            {
              "internalType": "string",
              "name": "repairCenter",
              "type": "string"
            },
            {
              "internalType": "string",
              "name": "partReplaced",
              "type": "string"
            },
            {
              "internalType": "string",
              "name": "description",
              "type": "string"
            },
            {
              "internalType": "string",
              "name": "ipfsHash",
              "type": "string"
            },
            {
              "internalType": "uint256",
              "name": "timestamp",
              "type": "uint256"
            },
            {
              "internalType": "enum RepairPassport.RepairStatus",
              "name": "status",
              "type": "uint8"
            },
            {
              "internalType": "bool",
              "name": "customerReported",
              "type": "bool"
            }
          ],
          "internalType": "struct RepairPassport.RepairRecord[]",
          "name": "",
          "type": "tuple[]"
        }
      ],
      "stateMutability": "view",
      "type": "function"
    },
    {
      "inputs": [
        {
          "internalType": "string",
          "name": "_productId",
          "type": "string"
        }
      ],
      "name": "getTransfers",
      "outputs": [
        {
          "components": [
            {
              "internalType": "string",
              "name": "productId",
              "type": "string"
            },
            {
              "internalType": "address",
              "name": "fromOwner",
              "type": "address"
            },
            {
              "internalType": "address",
              "name": "toOwner",
              "type": "address"
            },
            {
              "internalType": "uint256",
              "name": "timestamp",
              "type": "uint256"
            }
          ],
          "internalType": "struct RepairPassport.TransferRecord[]",
          "name": "",
          "type": "tuple[]"
        }
      ],
      "stateMutability": "view",
      "type": "function"
    },
    {
      "inputs": [
        {
          "internalType": "string",
          "name": "_productId",
          "type": "string"
        },
        {
          "internalType": "string",
          "name": "_repairCenter",
          "type": "string"
        },
        {
          "internalType": "string",
          "name": "_partReplaced",
          "type": "string"
        },
        {
          "internalType": "string",
          "name": "_description",
          "type": "string"
        },
        {
          "internalType": "string",
          "name": "_ipfsHash",
          "type": "string"
        }
      ],
      "name": "logRepair",
      "outputs": [],
      "stateMutability": "nonpayable",
      "type": "function"
    },
    {
      "inputs": [
        {
          "internalType": "uint256",
          "name": "",
          "type": "uint256"
        }
      ],
      "name": "productIds",
      "outputs": [
        {
          "internalType": "string",
          "name": "",
          "type": "string"
        }
      ],
      "stateMutability": "view",
      "type": "function"
    },
    {
      "inputs": [
        {
          "internalType": "string",
          "name": "",
          "type": "string"
        }
      ],
      "name": "products",
      "outputs": [
        {
          "internalType": "string",
          "name": "productId",
          "type": "string"
        },
        {
          "internalType": "string",
          "name": "brand",
          "type": "string"
        },
        {
          "internalType": "string",
          "name": "city",
          "type": "string"
        },
        {
          "internalType": "address",
          "name": "owner",
          "type": "address"
        },
        {
          "internalType": "address",
          "name": "manufacturer",
          "type": "address"
        },
        {
          "internalType": "uint256",
          "name": "registeredAt",
          "type": "uint256"
        },
        {
          "internalType": "bool",
          "name": "exists",
          "type": "bool"
        },
        {
          "internalType": "uint256",
          "name": "repairCount",
          "type": "uint256"
        },
        {
          "internalType": "uint256",
          "name": "transferCount",
          "type": "uint256"
        }
      ],
      "stateMutability": "view",
      "type": "function"
    },
    {
      "inputs": [
        {
          "internalType": "string",
          "name": "_productId",
          "type": "string"
        },
        {
          "internalType": "string",
          "name": "_brand",
          "type": "string"
        },
        {
          "internalType": "string",
          "name": "_city",
          "type": "string"
        },
        {
          "internalType": "string",
          "name": "_ownerName",
          "type": "string"
        }
      ],
      "name": "registerProduct",
      "outputs": [],
      "stateMutability": "nonpayable",
      "type": "function"
    },
    {
      "inputs": [
        {
          "internalType": "string",
          "name": "",
          "type": "string"
        },
        {
          "internalType": "uint256",
          "name": "",
          "type": "uint256"
        }
      ],
      "name": "repairs",
      "outputs": [
        {
          "internalType": "string",
          "name": "productId",
          "type": "string"
        },
        {
          "internalType": "address",
          "name": "repairer",
          "type": "address"
        },
        {
          "internalType": "string",
          "name": "repairCenter",
          "type": "string"
        },
        {
          "internalType": "string",
          "name": "partReplaced",
          "type": "string"
        },
        {
          "internalType": "string",
          "name": "description",
          "type": "string"
        },
        {
          "internalType": "string",
          "name": "ipfsHash",
          "type": "string"
        },
        {
          "internalType": "uint256",
          "name": "timestamp",
          "type": "uint256"
        },
        {
          "internalType": "enum RepairPassport.RepairStatus",
          "name": "status",
          "type": "uint8"
        },
        {
          "internalType": "bool",
          "name": "customerReported",
          "type": "bool"
        }
      ],
      "stateMutability": "view",
      "type": "function"
    },
    {
      "inputs": [
        {
          "internalType": "address",
          "name": "",
          "type": "address"
        }
      ],
      "name": "roles",
      "outputs": [
        {
          "internalType": "enum RepairPassport.Role",
          "name": "",
          "type": "uint8"
        }
      ],
      "stateMutability": "view",
      "type": "function"
    },
    {
      "inputs": [],
      "name": "totalProducts",
      "outputs": [
        {
          "internalType": "uint256",
          "name": "",
          "type": "uint256"
        }
      ],
      "stateMutability": "view",
      "type": "function"
    },
    {
      "inputs": [],
      "name": "totalRepairs",
      "outputs": [
        {
          "internalType": "uint256",
          "name": "",
          "type": "uint256"
        }
      ],
      "stateMutability": "view",
      "type": "function"
    },
    {
      "inputs": [],
      "name": "totalTransfers",
      "outputs": [
        {
          "internalType": "uint256",
          "name": "",
          "type": "uint256"
        }
      ],
      "stateMutability": "view",
      "type": "function"
    },
    {
      "inputs": [
        {
          "internalType": "string",
          "name": "_productId",
          "type": "string"
        },
        {
          "internalType": "address",
          "name": "_newOwner",
          "type": "address"
        }
      ],
      "name": "transferOwnership",
      "outputs": [],
      "stateMutability": "nonpayable",
      "type": "function"
    },
    {
      "inputs": [
        {
          "internalType": "string",
          "name": "",
          "type": "string"
        },
        {
          "internalType": "uint256",
          "name": "",
          "type": "uint256"
        }
      ],
      "name": "transfers",
      "outputs": [
        {
          "internalType": "string",
          "name": "productId",
          "type": "string"
        },
        {
          "internalType": "address",
          "name": "fromOwner",
          "type": "address"
        },
        {
          "internalType": "address",
          "name": "toOwner",
          "type": "address"
        },
        {
          "internalType": "uint256",
          "name": "timestamp",
          "type": "uint256"
        }
      ],
      "stateMutability": "view",
      "type": "function"
    },
    {
      "inputs": [
        {
          "internalType": "address",
          "name": "",
          "type": "address"
        }
      ],
      "name": "userNames",
      "outputs": [
        {
          "internalType": "string",
          "name": "",
          "type": "string"
        }
      ],
      "stateMutability": "view",
      "type": "function"
    },
    {
      "inputs": [
        {
          "internalType": "string",
          "name": "_productId",
          "type": "string"
        },
        {
          "internalType": "uint256",
          "name": "_repairIndex",
          "type": "uint256"
        }
      ],
      "name": "verifyRepair",
      "outputs": [],
      "stateMutability": "nonpayable",
      "type": "function"
    }
  ],
  "bytecode": "0x60806040523480156200001157600080fd5b50336000806101000a81548173ffffffffffffffffffffffffffffffffffffffff021916908373ffffffffffffffffffffffffffffffffffffffff1602179055506001600460003373ffffffffffffffffffffffffffffffffffffffff1673ffffffffffffffffffffffffffffffffffffffff16815260200190815260200160002060006101000a81548160ff02191690836003811115620000b857620000b7620000c3565b5b0217905550620000f2565b7f4e487b7100000000000000000000000000000000000000000000000000000000600052602160045260246000fd5b61418180620001026000396000f3fe608060405234801561001057600080fd5b506004361061012c5760003560e01c80638799d6fc116100ad578063c4d6ac9811610071578063c4d6ac9814610367578063cb51bba914610397578063f07b0278146103c7578063f4ee664c146103fa578063f851a440146104165761012c565b80638799d6fc146102c557806399374642146102e15780639b9d326d14610311578063b3473caa1461032f578063c0e793c21461034b5761012c565b806368111cce116100f457806368111cce146101e15780636dafee6d146102115780637bf5daa51461022d5780637f2816351461025d5780638615cb471461028d5761012c565b80630186a423146101315780633bf47720146101695780634a348da9146101875780634ec4f23f146101a5578063663c01af146101c3575b600080fd5b61014b60048036038101906101469190612a5e565b610434565b60405161016099989796959493929190612b9b565b60405180910390f35b61017161067d565b60405161017e9190612c3d565b60405180910390f35b61018f610683565b60405161019c9190612c3d565b60405180910390f35b6101ad61068d565b6040516101ba9190612c3d565b60405180910390f35b6101cb610693565b6040516101d89190612d64565b60405180910390f35b6101fb60048036038101906101f69190612a5e565b61076c565b6040516102089190612e86565b60405180910390f35b61022b60048036038101906102269190612ef9565b610aae565b005b61024760048036038101906102429190612a5e565b610c43565b6040516102549190613182565b60405180910390f35b610277600480360381019061027291906131a4565b611051565b60405161028491906131d1565b60405180910390f35b6102a760048036038101906102a2919061321f565b6110f1565b6040516102bc9998979695949392919061328a565b60405180910390f35b6102df60048036038101906102da919061333a565b611454565b005b6102fb60048036038101906102f691906131a4565b611877565b6040516103089190613459565b60405180910390f35b610319611897565b6040516103269190612c3d565b60405180910390f35b6103496004803603810190610344919061321f565b61189d565b005b61036560048036038101906103609190613474565b611b9b565b005b610381600480360381019061037c9190612a5e565b61203a565b60405161038e91906135f5565b60405180910390f35b6103b160048036038101906103ac9190613617565b6121ff565b6040516103be91906131d1565b60405180910390f35b6103e160048036038101906103dc919061321f565b6122ab565b6040516103f19493929190613644565b60405180910390f35b610414600480360381019061040f9190613690565b6123d6565b005b61041e612866565b60405161042b9190613797565b60405180910390f35b60018180516020810182018051848252602083016020850120818352809550505050505060009150905080600001805461046d906137e1565b80601f0160208091040260200160405190810160405280929190818152602001828054610499906137e1565b80156104e65780601f106104bb576101008083540402835291602001916104e6565b820191906000526020600020905b8154815290600101906020018083116104c957829003601f168201915b5050505050908060010180546104fb906137e1565b80601f0160208091040260200160405190810160405280929190818152602001828054610527906137e1565b80156105745780601f1061054957610100808354040283529160200191610574565b820191906000526020600020905b81548152906001019060200180831161055757829003601f168201915b505050505090806002018054610589906137e1565b80601f01602080910402602001604051908101604052809291908181526020018280546105b5906137e1565b80156106025780601f106105d757610100808354040283529160200191610602565b820191906000526020600020905b8154815290600101906020018083116105e557829003601f168201915b5050505050908060030160009054906101000a900473ffffffffffffffffffffffffffffffffffffffff16908060040160009054906101000a900473ffffffffffffffffffffffffffffffffffffffff16908060050154908060060160009054906101000a900460ff16908060070154908060080154905089565b60095481565b6000600754905090565b60085481565b60606006805480602002602001604051908101604052809291908181526020016000905b828210156107635783829060005260206000200180546106d6906137e1565b80601f0160208091040260200160405190810160405280929190818152602001828054610702906137e1565b801561074f5780601f106107245761010080835404028352916020019161074f565b820191906000526020600020905b81548152906001019060200180831161073257829003601f168201915b5050505050815260200190600101906106b7565b50505050905090565b61077461288a565b600182604051610784919061384e565b908152602001604051809103902060060160009054906101000a900460ff166107e2576040517f08c379a00000000000000000000000000000000000000000000000000000000081526004016107d9906138b1565b60405180910390fd5b6001826040516107f2919061384e565b90815260200160405180910390206040518061012001604052908160008201805461081c906137e1565b80601f0160208091040260200160405190810160405280929190818152602001828054610848906137e1565b80156108955780601f1061086a57610100808354040283529160200191610895565b820191906000526020600020905b81548152906001019060200180831161087857829003601f168201915b505050505081526020016001820180546108ae906137e1565b80601f01602080910402602001604051908101604052809291908181526020018280546108da906137e1565b80156109275780601f106108fc57610100808354040283529160200191610927565b820191906000526020600020905b81548152906001019060200180831161090a57829003601f168201915b50505050508152602001600282018054610940906137e1565b80601f016020809104026020016040519081016040528092919081815260200182805461096c906137e1565b80156109b95780601f1061098e576101008083540402835291602001916109b9565b820191906000526020600020905b81548152906001019060200180831161099c57829003601f168201915b505050505081526020016003820160009054906101000a900473ffffffffffffffffffffffffffffffffffffffff1673ffffffffffffffffffffffffffffffffffffffff1673ffffffffffffffffffffffffffffffffffffffff1681526020016004820160009054906101000a900473ffffffffffffffffffffffffffffffffffffffff1673ffffffffffffffffffffffffffffffffffffffff1673ffffffffffffffffffffffffffffffffffffffff168152602001600582015481526020016006820160009054906101000a900460ff16151515158152602001600782015481526020016008820154815250509050919050565b60008054906101000a900473ffffffffffffffffffffffffffffffffffffffff1673ffffffffffffffffffffffffffffffffffffffff163373ffffffffffffffffffffffffffffffffffffffff1614610b3c576040517f08c379a0000000000000000000000000000000000000000000000000000000008152600401610b3390613943565b60405180910390fd5b81600460008573ffffffffffffffffffffffffffffffffffffffff1673ffffffffffffffffffffffffffffffffffffffff16815260200190815260200160002060006101000a81548160ff02191690836003811115610b9e57610b9d612f94565b5b021790555080600560008573ffffffffffffffffffffffffffffffffffffffff1673ffffffffffffffffffffffffffffffffffffffff1681526020019081526020016000209081610bef9190613b0f565b508273ffffffffffffffffffffffffffffffffffffffff167f4ac36fa53f167ceb85964be512e01de2a3b8bdb9862f917da079deeeff689b3883604051610c369190613459565b60405180910390a2505050565b6060600282604051610c55919061384e565b9081526020016040518091039020805480602002602001604051908101604052809291908181526020016000905b82821015611046578382906000526020600020906008020160405180610120016040529081600082018054610cb7906137e1565b80601f0160208091040260200160405190810160405280929190818152602001828054610ce3906137e1565b8015610d305780601f10610d0557610100808354040283529160200191610d30565b820191906000526020600020905b815481529060010190602001808311610d1357829003601f168201915b505050505081526020016001820160009054906101000a900473ffffffffffffffffffffffffffffffffffffffff1673ffffffffffffffffffffffffffffffffffffffff1673ffffffffffffffffffffffffffffffffffffffff168152602001600282018054610d9f906137e1565b80601f0160208091040260200160405190810160405280929190818152602001828054610dcb906137e1565b8015610e185780601f10610ded57610100808354040283529160200191610e18565b820191906000526020600020905b815481529060010190602001808311610dfb57829003601f168201915b50505050508152602001600382018054610e31906137e1565b80601f0160208091040260200160405190810160405280929190818152602001828054610e5d906137e1565b8015610eaa5780601f10610e7f57610100808354040283529160200191610eaa565b820191906000526020600020905b815481529060010190602001808311610e8d57829003601f168201915b50505050508152602001600482018054610ec3906137e1565b80601f0160208091040260200160405190810160405280929190818152602001828054610eef906137e1565b8015610f3c5780601f10610f1157610100808354040283529160200191610f3c565b820191906000526020600020905b815481529060010190602001808311610f1f57829003601f168201915b50505050508152602001600582018054610f55906137e1565b80601f0160208091040260200160405190810160405280929190818152602001828054610f81906137e1565b8015610fce5780601f10610fa357610100808354040283529160200191610fce565b820191906000526020600020905b815481529060010190602001808311610fb157829003601f168201915b50505050508152602001600682015481526020016007820160009054906101000a900460ff16600281111561100657611005612f94565b5b600281111561101857611017612f94565b5b81526020016007820160019054906101000a900460ff16151515158152505081526020019060010190610c83565b505050509050919050565b60056020528060005260406000206000915090508054611070906137e1565b80601f016020809104026020016040519081016040528092919081815260200182805461109c906137e1565b80156110e95780601f106110be576101008083540402835291602001916110e9565b820191906000526020600020905b8154815290600101906020018083116110cc57829003601f168201915b505050505081565b600282805160208101820180518482526020830160208501208183528095505050505050818154811061112357600080fd5b906000526020600020906008020160009150915050806000018054611147906137e1565b80601f0160208091040260200160405190810160405280929190818152602001828054611173906137e1565b80156111c05780601f10611195576101008083540402835291602001916111c0565b820191906000526020600020905b8154815290600101906020018083116111a357829003601f168201915b5050505050908060010160009054906101000a900473ffffffffffffffffffffffffffffffffffffffff16908060020180546111fb906137e1565b80601f0160208091040260200160405190810160405280929190818152602001828054611227906137e1565b80156112745780601f1061124957610100808354040283529160200191611274565b820191906000526020600020905b81548152906001019060200180831161125757829003601f168201915b505050505090806003018054611289906137e1565b80601f01602080910402602001604051908101604052809291908181526020018280546112b5906137e1565b80156113025780601f106112d757610100808354040283529160200191611302565b820191906000526020600020905b8154815290600101906020018083116112e557829003601f168201915b505050505090806004018054611317906137e1565b80601f0160208091040260200160405190810160405280929190818152602001828054611343906137e1565b80156113905780601f1061136557610100808354040283529160200191611390565b820191906000526020600020905b81548152906001019060200180831161137357829003601f168201915b5050505050908060050180546113a5906137e1565b80601f01602080910402602001604051908101604052809291908181526020018280546113d1906137e1565b801561141e5780601f106113f35761010080835404028352916020019161141e565b820191906000526020600020905b81548152906001019060200180831161140157829003601f168201915b5050505050908060060154908060070160009054906101000a900460ff16908060070160019054906101000a900460ff16905089565b6001600381111561146857611467612f94565b5b600460003373ffffffffffffffffffffffffffffffffffffffff1673ffffffffffffffffffffffffffffffffffffffff16815260200190815260200160002060009054906101000a900460ff1660038111156114c7576114c6612f94565b5b148061151e575060008054906101000a900473ffffffffffffffffffffffffffffffffffffffff1673ffffffffffffffffffffffffffffffffffffffff163373ffffffffffffffffffffffffffffffffffffffff16145b61155d576040517f08c379a000000000000000000000000000000000000000000000000000000000815260040161155490613c53565b60405180910390fd5b60018460405161156d919061384e565b908152602001604051809103902060060160009054906101000a900460ff16156115cc576040517f08c379a00000000000000000000000000000000000000000000000000000000081526004016115c390613cbf565b60405180910390fd5b6040518061012001604052808581526020018481526020018381526020013373ffffffffffffffffffffffffffffffffffffffff1681526020013373ffffffffffffffffffffffffffffffffffffffff16815260200142815260200160011515815260200160008152602001600081525060018560405161164d919061384e565b908152602001604051809103902060008201518160000190816116709190613b0f565b5060208201518160010190816116869190613b0f565b50604082015181600201908161169c9190613b0f565b5060608201518160030160006101000a81548173ffffffffffffffffffffffffffffffffffffffff021916908373ffffffffffffffffffffffffffffffffffffffff16021790555060808201518160040160006101000a81548173ffffffffffffffffffffffffffffffffffffffff021916908373ffffffffffffffffffffffffffffffffffffffff16021790555060a0820151816005015560c08201518160060160006101000a81548160ff02191690831515021790555060e08201518160070155610100820151816008015590505080600560003373ffffffffffffffffffffffffffffffffffffffff1673ffffffffffffffffffffffffffffffffffffffff16815260200190815260200160002090816117b99190613b0f565b506006849080600181540180825580915050600190039060005260206000200160009091909190915090816117ee9190613b0f565b506007600081548092919061180290613d0e565b91905055503373ffffffffffffffffffffffffffffffffffffffff168460405161182c919061384e565b60405180910390207f8b861df145d07ad221a9b1d58528416332d16e4102e8fbcf5f048f7bf995521a858542436040516118699493929190613d56565b60405180910390a350505050565b60046020528060005260406000206000915054906101000a900460ff1681565b60075481565b816001816040516118ae919061384e565b908152602001604051809103902060060160009054906101000a900460ff1661190c576040517f08c379a0000000000000000000000000000000000000000000000000000000008152600401611903906138b1565b60405180910390fd5b600260038111156119205761191f612f94565b5b600460003373ffffffffffffffffffffffffffffffffffffffff1673ffffffffffffffffffffffffffffffffffffffff16815260200190815260200160002060009054906101000a900460ff16600381111561197f5761197e612f94565b5b14806119d6575060008054906101000a900473ffffffffffffffffffffffffffffffffffffffff1673ffffffffffffffffffffffffffffffffffffffff163373ffffffffffffffffffffffffffffffffffffffff16145b611a15576040517f08c379a0000000000000000000000000000000000000000000000000000000008152600401611a0c90613e1b565b60405180910390fd5b600283604051611a25919061384e565b9081526020016040518091039020805490508210611a78576040517f08c379a0000000000000000000000000000000000000000000000000000000008152600401611a6f90613e87565b60405180910390fd5b600280811115611a8b57611a8a612f94565b5b600284604051611a9b919061384e565b90815260200160405180910390208381548110611abb57611aba613ea7565b5b906000526020600020906008020160070160009054906101000a900460ff166002811115611aec57611aeb612f94565b5b14611b2c576040517f08c379a0000000000000000000000000000000000000000000000000000000008152600401611b2390613f22565b60405180910390fd5b6001600284604051611b3e919061384e565b90815260200160405180910390208381548110611b5e57611b5d613ea7565b5b906000526020600020906008020160070160006101000a81548160ff02191690836002811115611b9157611b90612f94565b5b0217905550505050565b81600181604051611bac919061384e565b908152602001604051809103902060060160009054906101000a900460ff16611c0a576040517f08c379a0000000000000000000000000000000000000000000000000000000008152600401611c01906138b1565b60405180910390fd5b3373ffffffffffffffffffffffffffffffffffffffff16600184604051611c31919061384e565b908152602001604051809103902060030160009054906101000a900473ffffffffffffffffffffffffffffffffffffffff1673ffffffffffffffffffffffffffffffffffffffff161480611cd0575060008054906101000a900473ffffffffffffffffffffffffffffffffffffffff1673ffffffffffffffffffffffffffffffffffffffff163373ffffffffffffffffffffffffffffffffffffffff16145b611d0f576040517f08c379a0000000000000000000000000000000000000000000000000000000008152600401611d0690613f8e565b60405180910390fd5b600073ffffffffffffffffffffffffffffffffffffffff168273ffffffffffffffffffffffffffffffffffffffff1603611d7e576040517f08c379a0000000000000000000000000000000000000000000000000000000008152600401611d7590613ffa565b60405180910390fd5b6000600184604051611d90919061384e565b908152602001604051809103902060030160009054906101000a900473ffffffffffffffffffffffffffffffffffffffff169050600384604051611dd4919061384e565b908152602001604051809103902060405180608001604052808681526020018373ffffffffffffffffffffffffffffffffffffffff1681526020018573ffffffffffffffffffffffffffffffffffffffff1681526020014281525090806001815401808255809150506001900390600052602060002090600402016000909190919091506000820151816000019081611e6d9190613b0f565b5060208201518160010160006101000a81548173ffffffffffffffffffffffffffffffffffffffff021916908373ffffffffffffffffffffffffffffffffffffffff16021790555060408201518160020160006101000a81548173ffffffffffffffffffffffffffffffffffffffff021916908373ffffffffffffffffffffffffffffffffffffffff16021790555060608201518160030155505082600185604051611f19919061384e565b908152602001604051809103902060030160006101000a81548173ffffffffffffffffffffffffffffffffffffffff021916908373ffffffffffffffffffffffffffffffffffffffff160217905550600184604051611f78919061384e565b90815260200160405180910390206008016000815480929190611f9a90613d0e565b919050555060096000815480929190611fb290613d0e565b91905055508273ffffffffffffffffffffffffffffffffffffffff168173ffffffffffffffffffffffffffffffffffffffff1685604051611ff3919061384e565b60405180910390207fa2aa300253a59b0d14a39bbc97f6f2b03233d01b5957681c184fb6df9c8d908c424360405161202c92919061401a565b60405180910390a450505050565b606060038260405161204c919061384e565b9081526020016040518091039020805480602002602001604051908101604052809291908181526020016000905b828210156121f457838290600052602060002090600402016040518060800160405290816000820180546120ad906137e1565b80601f01602080910402602001604051908101604052809291908181526020018280546120d9906137e1565b80156121265780601f106120fb57610100808354040283529160200191612126565b820191906000526020600020905b81548152906001019060200180831161210957829003601f168201915b505050505081526020016001820160009054906101000a900473ffffffffffffffffffffffffffffffffffffffff1673ffffffffffffffffffffffffffffffffffffffff1673ffffffffffffffffffffffffffffffffffffffff1681526020016002820160009054906101000a900473ffffffffffffffffffffffffffffffffffffffff1673ffffffffffffffffffffffffffffffffffffffff1673ffffffffffffffffffffffffffffffffffffffff1681526020016003820154815250508152602001906001019061207a565b505050509050919050565b6006818154811061220f57600080fd5b90600052602060002001600091509050805461222a906137e1565b80601f0160208091040260200160405190810160405280929190818152602001828054612256906137e1565b80156122a35780601f10612278576101008083540402835291602001916122a3565b820191906000526020600020905b81548152906001019060200180831161228657829003601f168201915b505050505081565b60038280516020810182018051848252602083016020850120818352809550505050505081815481106122dd57600080fd5b906000526020600020906004020160009150915050806000018054612301906137e1565b80601f016020809104026020016040519081016040528092919081815260200182805461232d906137e1565b801561237a5780601f1061234f5761010080835404028352916020019161237a565b820191906000526020600020905b81548152906001019060200180831161235d57829003601f168201915b5050505050908060010160009054906101000a900473ffffffffffffffffffffffffffffffffffffffff16908060020160009054906101000a900473ffffffffffffffffffffffffffffffffffffffff16908060030154905084565b846001816040516123e7919061384e565b908152602001604051809103902060060160009054906101000a900460ff16612445576040517f08c379a000000000000000000000000000000000000000000000000000000000815260040161243c906138b1565b60405180910390fd5b6000806002600381111561245c5761245b612f94565b5b600460003373ffffffffffffffffffffffffffffffffffffffff1673ffffffffffffffffffffffffffffffffffffffff16815260200190815260200160002060009054906101000a900460ff1660038111156124bb576124ba612f94565b5b1480612512575060008054906101000a900473ffffffffffffffffffffffffffffffffffffffff1673ffffffffffffffffffffffffffffffffffffffff163373ffffffffffffffffffffffffffffffffffffffff16145b156125245760019150600090506125dc565b3373ffffffffffffffffffffffffffffffffffffffff1660018960405161254b919061384e565b908152602001604051809103902060030160009054906101000a900473ffffffffffffffffffffffffffffffffffffffff1673ffffffffffffffffffffffffffffffffffffffff16146125d3576040517f08c379a00000000000000000000000000000000000000000000000000000000081526004016125ca906140b5565b60405180910390fd5b60029150600190505b6002886040516125ec919061384e565b90815260200160405180910390206040518061012001604052808a81526020013373ffffffffffffffffffffffffffffffffffffffff16815260200189815260200188815260200187815260200186815260200142815260200184600281111561265957612658612f94565b5b8152602001831515815250908060018154018082558091505060019003906000526020600020906008020160009091909190915060008201518160000190816126a29190613b0f565b5060208201518160010160006101000a81548173ffffffffffffffffffffffffffffffffffffffff021916908373ffffffffffffffffffffffffffffffffffffffff16021790555060408201518160020190816126ff9190613b0f565b5060608201518160030190816127159190613b0f565b50608082015181600401908161272b9190613b0f565b5060a08201518160050190816127419190613b0f565b5060c0820151816006015560e08201518160070160006101000a81548160ff0219169083600281111561277757612776612f94565b5b02179055506101008201518160070160016101000a81548160ff02191690831515021790555050506001886040516127af919061384e565b908152602001604051809103902060070160008154809291906127d190613d0e565b9190505550600860008154809291906127e990613d0e565b91905055503373ffffffffffffffffffffffffffffffffffffffff1688604051612813919061384e565b60405180910390207f48a6ad35bc1ee97db2ed92d1e1b909c7f5de26e33d0bf3eb4a026d12ad600acb898988428743604051612854969594939291906140d5565b60405180910390a35050505050505050565b60008054906101000a900473ffffffffffffffffffffffffffffffffffffffff1681565b604051806101200160405280606081526020016060815260200160608152602001600073ffffffffffffffffffffffffffffffffffffffff168152602001600073ffffffffffffffffffffffffffffffffffffffff1681526020016000815260200160001515815260200160008152602001600081525090565b6000604051905090565b600080fd5b600080fd5b600080fd5b600080fd5b6000601f19601f8301169050919050565b7f4e487b7100000000000000000000000000000000000000000000000000000000600052604160045260246000fd5b61296b82612922565b810181811067ffffffffffffffff8211171561298a57612989612933565b5b80604052505050565b600061299d612904565b90506129a98282612962565b919050565b600067ffffffffffffffff8211156129c9576129c8612933565b5b6129d282612922565b9050602081019050919050565b82818337600083830152505050565b6000612a016129fc846129ae565b612993565b905082815260208101848484011115612a1d57612a1c61291d565b5b612a288482856129df565b509392505050565b600082601f830112612a4557612a44612918565b5b8135612a558482602086016129ee565b91505092915050565b600060208284031215612a7457612a7361290e565b5b600082013567ffffffffffffffff811115612a9257612a91612913565b5b612a9e84828501612a30565b91505092915050565b600081519050919050565b600082825260208201905092915050565b60005b83811015612ae1578082015181840152602081019050612ac6565b60008484015250505050565b6000612af882612aa7565b612b028185612ab2565b9350612b12818560208601612ac3565b612b1b81612922565b840191505092915050565b600073ffffffffffffffffffffffffffffffffffffffff82169050919050565b6000612b5182612b26565b9050919050565b612b6181612b46565b82525050565b6000819050919050565b612b7a81612b67565b82525050565b60008115159050919050565b612b9581612b80565b82525050565b6000610120820190508181036000830152612bb6818c612aed565b90508181036020830152612bca818b612aed565b90508181036040830152612bde818a612aed565b9050612bed6060830189612b58565b612bfa6080830188612b58565b612c0760a0830187612b71565b612c1460c0830186612b8c565b612c2160e0830185612b71565b612c2f610100830184612b71565b9a9950505050505050505050565b6000602082019050612c526000830184612b71565b92915050565b600081519050919050565b600082825260208201905092915050565b6000819050602082019050919050565b600082825260208201905092915050565b6000612ca082612aa7565b612caa8185612c84565b9350612cba818560208601612ac3565b612cc381612922565b840191505092915050565b6000612cda8383612c95565b905092915050565b6000602082019050919050565b6000612cfa82612c58565b612d048185612c63565b935083602082028501612d1685612c74565b8060005b85811015612d525784840389528151612d338582612cce565b9450612d3e83612ce2565b925060208a01995050600181019050612d1a565b50829750879550505050505092915050565b60006020820190508181036000830152612d7e8184612cef565b905092915050565b612d8f81612b46565b82525050565b612d9e81612b67565b82525050565b612dad81612b80565b82525050565b6000610120830160008301518482036000860152612dd18282612c95565b91505060208301518482036020860152612deb8282612c95565b91505060408301518482036040860152612e058282612c95565b9150506060830151612e1a6060860182612d86565b506080830151612e2d6080860182612d86565b5060a0830151612e4060a0860182612d95565b5060c0830151612e5360c0860182612da4565b5060e0830151612e6660e0860182612d95565b50610100830151612e7b610100860182612d95565b508091505092915050565b60006020820190508181036000830152612ea08184612db3565b905092915050565b612eb181612b46565b8114612ebc57600080fd5b50565b600081359050612ece81612ea8565b92915050565b60048110612ee157600080fd5b50565b600081359050612ef381612ed4565b92915050565b600080600060608486031215612f1257612f1161290e565b5b6000612f2086828701612ebf565b9350506020612f3186828701612ee4565b925050604084013567ffffffffffffffff811115612f5257612f51612913565b5b612f5e86828701612a30565b9150509250925092565b600081519050919050565b600082825260208201905092915050565b6000819050602082019050919050565b7f4e487b7100000000000000000000000000000000000000000000000000000000600052602160045260246000fd5b60038110612fd457612fd3612f94565b5b50565b6000819050612fe582612fc3565b919050565b6000612ff582612fd7565b9050919050565b61300581612fea565b82525050565b60006101208301600083015184820360008601526130298282612c95565b915050602083015161303e6020860182612d86565b50604083015184820360408601526130568282612c95565b915050606083015184820360608601526130708282612c95565b9150506080830151848203608086015261308a8282612c95565b91505060a083015184820360a08601526130a48282612c95565b91505060c08301516130b960c0860182612d95565b5060e08301516130cc60e0860182612ffc565b506101008301516130e1610100860182612da4565b508091505092915050565b60006130f8838361300b565b905092915050565b6000602082019050919050565b600061311882612f68565b6131228185612f73565b93508360208202850161313485612f84565b8060005b85811015613170578484038952815161315185826130ec565b945061315c83613100565b925060208a01995050600181019050613138565b50829750879550505050505092915050565b6000602082019050818103600083015261319c818461310d565b905092915050565b6000602082840312156131ba576131b961290e565b5b60006131c884828501612ebf565b91505092915050565b600060208201905081810360008301526131eb8184612aed565b905092915050565b6131fc81612b67565b811461320757600080fd5b50565b600081359050613219816131f3565b92915050565b600080604083850312156132365761323561290e565b5b600083013567ffffffffffffffff81111561325457613253612913565b5b61326085828601612a30565b92505060206132718582860161320a565b9150509250929050565b61328481612fea565b82525050565b60006101208201905081810360008301526132a5818c612aed565b90506132b4602083018b612b58565b81810360408301526132c6818a612aed565b905081810360608301526132da8189612aed565b905081810360808301526132ee8188612aed565b905081810360a08301526133028187612aed565b905061331160c0830186612b71565b61331e60e083018561327b565b61332c610100830184612b8c565b9a9950505050505050505050565b600080600080608085870312156133545761335361290e565b5b600085013567ffffffffffffffff81111561337257613371612913565b5b61337e87828801612a30565b945050602085013567ffffffffffffffff81111561339f5761339e612913565b5b6133ab87828801612a30565b935050604085013567ffffffffffffffff8111156133cc576133cb612913565b5b6133d887828801612a30565b925050606085013567ffffffffffffffff8111156133f9576133f8612913565b5b61340587828801612a30565b91505092959194509250565b6004811061342257613421612f94565b5b50565b600081905061343382613411565b919050565b600061344382613425565b9050919050565b61345381613438565b82525050565b600060208201905061346e600083018461344a565b92915050565b6000806040838503121561348b5761348a61290e565b5b600083013567ffffffffffffffff8111156134a9576134a8612913565b5b6134b585828601612a30565b92505060206134c685828601612ebf565b9150509250929050565b600081519050919050565b600082825260208201905092915050565b6000819050602082019050919050565b600060808301600083015184820360008601526135198282612c95565b915050602083015161352e6020860182612d86565b5060408301516135416040860182612d86565b5060608301516135546060860182612d95565b508091505092915050565b600061356b83836134fc565b905092915050565b6000602082019050919050565b600061358b826134d0565b61359581856134db565b9350836020820285016135a7856134ec565b8060005b858110156135e357848403895281516135c4858261355f565b94506135cf83613573565b925060208a019950506001810190506135ab565b50829750879550505050505092915050565b6000602082019050818103600083015261360f8184613580565b905092915050565b60006020828403121561362d5761362c61290e565b5b600061363b8482850161320a565b91505092915050565b6000608082019050818103600083015261365e8187612aed565b905061366d6020830186612b58565b61367a6040830185612b58565b6136876060830184612b71565b95945050505050565b600080600080600060a086880312156136ac576136ab61290e565b5b600086013567ffffffffffffffff8111156136ca576136c9612913565b5b6136d688828901612a30565b955050602086013567ffffffffffffffff8111156136f7576136f6612913565b5b61370388828901612a30565b945050604086013567ffffffffffffffff81111561372457613723612913565b5b61373088828901612a30565b935050606086013567ffffffffffffffff81111561375157613750612913565b5b61375d88828901612a30565b925050608086013567ffffffffffffffff81111561377e5761377d612913565b5b61378a88828901612a30565b9150509295509295909350565b60006020820190506137ac6000830184612b58565b92915050565b7f4e487b7100000000000000000000000000000000000000000000000000000000600052602260045260246000fd5b600060028204905060018216806137f957607f821691505b60208210810361380c5761380b6137b2565b5b50919050565b600081905092915050565b600061382882612aa7565b6138328185613812565b9350613842818560208601612ac3565b80840191505092915050565b600061385a828461381d565b915081905092915050565b7f50726f6475637420646f6573206e6f7420657869737400000000000000000000600082015250565b600061389b601683612ab2565b91506138a682613865565b602082019050919050565b600060208201905081810360008301526138ca8161388e565b9050919050565b7f4f6e6c792061646d696e2063616e20706572666f726d2074686973206163746960008201527f6f6e000000000000000000000000000000000000000000000000000000000000602082015250565b600061392d602283612ab2565b9150613938826138d1565b604082019050919050565b6000602082019050818103600083015261395c81613920565b9050919050565b60008190508160005260206000209050919050565b60006020601f8301049050919050565b600082821b905092915050565b6000600883026139c57fffffffffffffffffffffffffffffffffffffffffffffffffffffffffffffffff82613988565b6139cf8683613988565b95508019841693508086168417925050509392505050565b6000819050919050565b6000613a0c613a07613a0284612b67565b6139e7565b612b67565b9050919050565b6000819050919050565b613a26836139f1565b613a3a613a3282613a13565b848454613995565b825550505050565b600090565b613a4f613a42565b613a5a818484613a1d565b505050565b5b81811015613a7e57613a73600082613a47565b600181019050613a60565b5050565b601f821115613ac357613a9481613963565b613a9d84613978565b81016020851015613aac578190505b613ac0613ab885613978565b830182613a5f565b50505b505050565b600082821c905092915050565b6000613ae660001984600802613ac8565b1980831691505092915050565b6000613aff8383613ad5565b9150826002028217905092915050565b613b1882612aa7565b67ffffffffffffffff811115613b3157613b30612933565b5b613b3b82546137e1565b613b46828285613a82565b600060209050601f831160018114613b795760008415613b67578287015190505b613b718582613af3565b865550613bd9565b601f198416613b8786613963565b60005b82811015613baf57848901518255600182019150602085019450602081019050613b8a565b86831015613bcc5784890151613bc8601f891682613ad5565b8355505b6001600288020188555050505b505050505050565b7f4f6e6c79206d616e756661637475726572732063616e2072656769737465722060008201527f70726f6475637473000000000000000000000000000000000000000000000000602082015250565b6000613c3d602883612ab2565b9150613c4882613be1565b604082019050919050565b60006020820190508181036000830152613c6c81613c30565b9050919050565b7f50726f6475637420616c72656164792072656769737465726564000000000000600082015250565b6000613ca9601a83612ab2565b9150613cb482613c73565b602082019050919050565b60006020820190508181036000830152613cd881613c9c565b9050919050565b7f4e487b7100000000000000000000000000000000000000000000000000000000600052601160045260246000fd5b6000613d1982612b67565b91507fffffffffffffffffffffffffffffffffffffffffffffffffffffffffffffffff8203613d4b57613d4a613cdf565b5b600182019050919050565b60006080820190508181036000830152613d708187612aed565b90508181036020830152613d848186612aed565b9050613d936040830185612b71565b613da06060830184612b71565b95945050505050565b7f4f6e6c7920617574686f72697a6564207265706169722063656e74657273206360008201527f616e206c6f672072657061697273000000000000000000000000000000000000602082015250565b6000613e05602e83612ab2565b9150613e1082613da9565b604082019050919050565b60006020820190508181036000830152613e3481613df8565b9050919050565b7f496e76616c69642072657061697220696e646578000000000000000000000000600082015250565b6000613e71601483612ab2565b9150613e7c82613e3b565b602082019050919050565b60006020820190508181036000830152613ea081613e64565b9050919050565b7f4e487b7100000000000000000000000000000000000000000000000000000000600052603260045260246000fd5b7f526570616972206973206e6f742073656c662d7265706f727465640000000000600082015250565b6000613f0c601b83612ab2565b9150613f1782613ed6565b602082019050919050565b60006020820190508181036000830152613f3b81613eff565b9050919050565b7f4f6e6c792063757272656e74206f776e65722063616e207472616e7366657200600082015250565b6000613f78601f83612ab2565b9150613f8382613f42565b602082019050919050565b60006020820190508181036000830152613fa781613f6b565b9050919050565b7f496e76616c6964206e6577206f776e6572206164647265737300000000000000600082015250565b6000613fe4601983612ab2565b9150613fef82613fae565b602082019050919050565b6000602082019050818103600083015261401381613fd7565b9050919050565b600060408201905061402f6000830185612b71565b61403c6020830184612b71565b9392505050565b7f4f6e6c792070726f64756374206f776e65722063616e2073656c662d7265706f60008201527f7274207265706169727300000000000000000000000000000000000000000000602082015250565b600061409f602a83612ab2565b91506140aa82614043565b604082019050919050565b600060208201905081810360008301526140ce81614092565b9050919050565b600060c08201905081810360008301526140ef8189612aed565b905081810360208301526141038188612aed565b905081810360408301526141178187612aed565b90506141266060830186612b71565b6141336080830185612b8c565b61414060a0830184612b71565b97965050505050505056fea2646970667358221220ac3cfc3785237e1022030656891983e76f52268d1839942129f3bed0966b578c64736f6c63430008140033",
  "linkReferences": {},
  "deployedLinkReferences": {}
}