{
  "_format": "hh-sol-artifact-1",
  "contractName": "RepairPassport",
  "sourceName": "contracts/RepairPassport.sol",
  "abi": [
    {
      "inputs": [],
      "stateMutability": "nonpayable",
      "type": "constructor"
    },
    {
      "anonymous": false,
      "inputs": [
        {
          "indexed": true,
          "internalType": "string",
          "name": "productId",
          "type": "string"
        },
        {
          "indexed": true,
          "internalType": "address",
          "name": "fromOwner",
          "type": "address"
        },
        {
          "indexed": true,
          "internalType": "address",
          "name": "toOwner",
          "type": "address"
        },
        {
          "indexed": false,
          "internalType": "uint256",
          "name": "timestamp",
          "type": "uint256"
        },
        {
          "indexed": false,
          "internalType": "uint256",
          "name": "blockNumber",
          "type": "uint256"
        }
      ],
      "name": "OwnershipTransferred",
      "type": "event"
    },
    {
      "anonymous": false,
      "inputs": [
        {
          "indexed": true,
          "internalType": "string",
          "name": "productId",
          "type": "string"
        },
        {
          "indexed": false,
          "internalType": "string",
          "name": "brand",
          "type": "string"
        },
        {
          "indexed": false,
          "internalType": "string",
          "name": "city",
          "type": "string"
        },
        {
          "indexed": true,
          "internalType": "address",
          "name": "owner",
          "type": "address"
        },
        {
          "indexed": false,
          "internalType": "uint256",
          "name": "timestamp",
          "type": "uint256"
        },
        {
          "indexed": false,
          "internalType": "uint256",
          "name": "blockNumber",
          "type": "uint256"
        }
      ],
      "name": "ProductRegistered",
      "type": "event"
    },
    {
      "anonymous": false,
      "inputs": [
        {
          "indexed": true,
          "internalType": "string",
          "name": "productId",
          "type": "string"
        },
        {
          "indexed": false,
          "internalType": "uint256",
          "name": "repairIndex",
          "type": "uint256"
        },
        {
          "indexed": true,
          "internalType": "address",
          "name": "repairer",
          "type": "address"
        },
        {
          "indexed": false,
          "internalType": "string",
          "name": "repairCenter",
          "type": "string"
        },
        {
          "indexed": false,
          "internalType": "string",
          "name": "partReplaced",
          "type": "string"
        },
        {
          "indexed": false,
          "internalType": "string",
          "name": "ipfsHash",
          "type": "string"
        },
        {
          "indexed": false,
          "internalType": "uint256",
          "name": "timestamp",
          "type": "uint256"
        },
        {
          "indexed": false,
          "internalType": "bool",
          "name": "customerReported",
          "type": "bool"
        },
        {
          "indexed": false,
          "internalType": "uint256",
          "name": "blockNumber",
          "type": "uint256"
        }
      ],
      "name": "RepairLogged",
      "type": "event"
    },
    {
      "anonymous": false,
      "inputs": [
        {
          "indexed": true,
          "internalType": "string",
          "name": "productId",
          "type": "string"
        },
        {
          "indexed": false,
          "internalType": "uint256",
          "name": "repairIndex",
          "type": "uint256"
        },
        {
          "indexed": true,
          "internalType": "address",
          "name": "verifier",
          "type": "address"
        },
        {
          "indexed": false,
          "internalType": "uint256",
          "name": "timestamp",
          "type": "uint256"
        }
      ],
      "name": "RepairVerified",
      "type": "event"
    },
    {
      "anonymous": false,
      "inputs": [
        {
          "indexed": true,
          "internalType": "address",
          "name": "user",
          "type": "address"
        },
        {
          "indexed": false,
          "internalType": "enum RepairPassport.Role",
          "name": "role",
          "type": "uint8"
        }
      ],
      "name": "RoleAssigned",
      "type": "event"
    },
    {
      "inputs": [],
      "name": "admin",
      "outputs": [
        {
          "internalType": "address",
          "name": "",
          "type": "address"
        }
      ],
      "stateMutability": "view",
      "type": "function"
    },
    {
      "inputs": [
        {
          "internalType": "address",
          "name": "_user",
          "type": "address"
        },
        {
          "internalType": "enum RepairPassport.Role",
          "name": "_role",
          "type": "uint8"
        },
        {
          "internalType": "string",
          "name": "_name",
          "type": "string"
        }
      ],
      "name": "assignRole",
      "outputs": [],
      "stateMutability": "nonpayable",
      "type": "function"
    },
    {
      "inputs": [],
      "name": "getAllProductIds",
      "outputs": [
        {
          "internalType": "string[]",
          "name": "",
          "type": "string[]"
        }
      ],
      "stateMutability": "view",
      "type": "function"
    },
    {
      "inputs": [
        {
          "internalType": "string",
          "name": "_productId",
          "type": "string"
        }
      ],
      "name": "getProduct",
      "outputs": [
        {
          "components": [
            {
              "internalType": "string",
              "name": "productId",
              "type": "string"
            },
            {
              "internalType": "string",
              "name": "brand",
              "type": "string"
            },
            {
              "internalType": "string",
              "name": "city",
              "type": "string"
            },
            {
              "internalType": "address",
              "name": "owner",
              "type": "address"
            },
            {
              "internalType": "address",
              "name": "manufacturer",
              "type": "address"
            },
            {
              "internalType": "uint256",
              "name": "registeredAt",
              "type": "uint256"
            },
            {
              "internalType": "bool",
              "name": "exists",
              "type": "bool"
            },
            {
              "internalType": "uint256",
              "name": "repairCount",
              "type": "uint256"
            },
            {
              "internalType": "uint256",
              "name": "transferCount",
              "type": "uint256"
            }
          ],
          "internalType": "struct RepairPassport.Product",
          "name": "",
          "type": "tuple"
        }
      ],
      "stateMutability": "view",
      "type": "function"
    },
    {
      "inputs": [],
      "name": "getProductCount",
      "outputs": [
        {
          "internalType": "uint256",
          "name": "",
          "type": "uint256"
        }
      ],
      "stateMutability": "view",
      "type": "function"
    },
    {
      "inputs": [
        {
          "internalType": "string",
          "name": "_productId",
          "type": "string"
        }
      ],
      "name": "getRepairs",
      "outputs": [
        {
          "components": [
            {
              "internalType": "string",
              "name": "productId",
              "type": "string"
            },
            {
              "internalType": "address",
              "name": "repairer",
              "type": "address"
            },
            {
              "internalType": "string",
              "name": "repairCenter",
              "type": "string"
            },
            {
              "internalType": "string",
              "name": "partReplaced",
              "type": "string"
            },
            {
              "internalType": "string",
              "name": "description",
              "type": "string"
            },
            {
              "internalType": "string",
              "name": "ipfsHash",
              "type": "string"
            },
            {
              "internalType": "uint256",
              "name": "timestamp",
              "type": "uint256"
            },
            {
              "internalType": "enum RepairPassport.RepairStatus",
              "name": "status",
              "type": "uint8"
            },
            {
              "internalType": "bool",
              "name": "customerReported",
              "type": "bool"
            }
          ],
          "internalType": "struct RepairPassport.RepairRecord[]",
          "name": "",
          "type": "tuple[]"
        }
      ],
      "stateMutability": "view",
      "type": "function"
    },
    {
      "inputs": [
        {
          "internalType": "string",
          "name": "_productId",
          "type": "string"
        }
      ],
      "name": "getTransfers",
      "outputs": [
        {
          "components": [
            {
              "internalType": "string",
              "name": "productId",
              "type": "string"
            },
            {
              "internalType": "address",
              "name": "fromOwner",
              "type": "address"
            },
            {
              "internalType": "address",
              "name": "toOwner",
              "type": "address"
            },
            {
              "internalType": "uint256",
              "name": "timestamp",
              "type": "uint256"
            }
          ],
          "internalType": "struct RepairPassport.TransferRecord[]",
          "name": "",
          "type": "tuple[]"
        }
      ],
      "stateMutability": "view",
      "type": "function"
    },
    {
      "inputs": [
        {
          "internalType": "string",
          "name": "_productId",
          "type": "string"
        },
        {
          "internalType": "string",
          "name": "_repairCenter",
          "type": "string"
        },
        {
          "internalType": "string",
          "name": "_partReplaced",
          "type": "string"
        },
        {
          "internalType": "string",
          "name": "_description",
          "type": "string"
        },
        {
          "internalType": "string",
          "name": "_ipfsHash",
          "type": "string"
        }
      ],
      "name": "logRepair",
      "outputs": [],
      "stateMutability": "nonpayable",
      "type": "function"
    },
    {
      "inputs": [
        {
          "internalType": "uint256",
          "name": "",
          "type": "uint256"
        }
      ],
      "name": "productIds",
      "outputs": [
        {
          "internalType": "string",
          "name": "",
          "type": "string"
        }
      ],
      "stateMutability": "view",
      "type": "function"
    },
    {
      "inputs": [
        {
          "internalType": "string",
          "name": "",
          "type": "string"
        }
      ],
      "name": "products",
      "outputs": [
        {
          "internalType": "string",
          "name": "productId",
          "type": "string"
        },
        {
          "internalType": "string",
          "name": "brand",
          "type": "string"
        },
        {
          "internalType": "string",
          "name": "city",
          "type": "string"
        },
        {
          "internalType": "address",
          "name": "owner",
          "type": "address"
        },
        {
          "internalType": "address",
          "name": "manufacturer",
          "type": "address"
        },
        {
          "internalType": "uint256",
          "name": "registeredAt",
          "type": "uint256"
        },
        {
          "internalType": "bool",
          "name": "exists",
          "type": "bool"
        },
        {
          "internalType": "uint256",
          "name": "repairCount",
          "type": "uint256"
        },
        {
          "internalType": "uint256",
          "name": "transferCount",
          "type": "uint256"
        }
      ],
      "stateMutability": "view",
      "type": "function"
    },
    {
      "inputs": [
        {
          "internalType": "string",
          "name": "_productId",
          "type": "string"
        },
        {
          "internalType": "string",
          "name": "_brand",
          "type": "string"
        },
        {
          "internalType": "string",
          "name": "_city",
          "type": "string"
        },
        {
          "internalType": "string",
          "name": "_ownerName",
          "type": "string"
        }
      ],
      "name": "registerProduct",
      "outputs": [],
      "stateMutability": "nonpayable",
      "type": "function"
    },
    {
      "inputs": [
        {
          "internalType": "string",
          "name": "",
          "type": "string"
        },
        {
          "internalType": "uint256",
          "name": "",
          "type": "uint256"
        }
      ],
      "name": "repairs",
      "outputs": [
        {
          "internalType": "string",
          "name": "productId",
          "type": "string"
        },
        {
          "internalType": "address",
          "name": "repairer",
          "type": "address"
        },
        {
          "internalType": "string",
          "name": "repairCenter",
          "type": "string"
        },
        {
          "internalType": "string",
          "name": "partReplaced",
          "type": "string"
        },
        {
          "internalType": "string",
          "name": "description",
          "type": "string"
        },
        {
          "internalType": "string",
          "name": "ipfsHash",
          "type": "string"
        },
        {
          "internalType": "uint256",
          "name": "timestamp",
          "type": "uint256"
        },
        {
          "internalType": "enum RepairPassport.RepairStatus",
          "name": "status",
          "type": "uint8"
        },
        {
          "internalType": "bool",
          "name": "customerReported",
          "type": "bool"
        }
      ],
      "stateMutability": "view",
      "type": "function"
    },
    {
      "inputs": [
        {
          "internalType": "address",
          "name": "",
          "type": "address"
        }
      ],
      "name": "roles",
      "outputs": [
        {
          "internalType": "enum RepairPassport.Role",
          "name": "",
          "type": "uint8"
        }
      ],
      "stateMutability": "view",
      "type": "function"
    },
    {
      "inputs": [],
      "name": "totalProducts",
      "outputs": [
        {
          "internalType": "uint256",
          "name": "",
          "type": "uint256"
        }
      ],
      "stateMutability": "view",
      "type": "function"
    },
    {
      "inputs": [],
      "name": "totalRepairs",
      "outputs": [
        {
          "internalType": "uint256",
          "name": "",
          "type": "uint256"
        }
      ],
      "stateMutability": "view",
      "type": "function"
    },
    {
      "inputs": [],
      "name": "totalTransfers",
      "outputs": [
        {
          "internalType": "uint256",
          "name": "",
          "type": "uint256"
        }
      ],
      "stateMutability": "view",
      "type": "function"
    },
    {
      "inputs": [
        {
          "internalType": "string",
          "name": "_productId",
          "type": "string"
        },
        {
          "internalType": "address",
          "name": "_newOwner",
          "type": "address"
        }
      ],
      "name": "transferOwnership",
      "outputs": [],
      "stateMutability": "nonpayable",
      "type": "function"
    },
    {
      "inputs": [
        {
          "internalType": "string",
          "name": "",
          "type": "string"
        },
        {
          "internalType": "uint256",
          "name": "",
          "type": "uint256"
        }
      ],
      "name": "transfers",
      "outputs": [
        {
          "internalType": "string",
          "name": "productId",
          "type": "string"
        },
        {
          "internalType": "address",
          "name": "fromOwner",
          "type": "address"
        },
        {
          "internalType": "address",
          "name": "toOwner",
          "type": "address"
        },
        {
          "internalType": "uint256",
          "name": "timestamp",
          "type": "uint256"
        }
      ],
      "stateMutability": "view",
      "type": "function"
    },
    {
      "inputs": [
        {
          "internalType": "address",
          "name": "",
          "type": "address"
        }
      ],
      "name": "userNames",
      "outputs": [
        {
          "internalType": "string",
          "name": "",
          "type": "string"
        }
      ],
      "stateMutability": "view",
      "type": "function"
    },
    {
      "inputs": [
        {
          "internalType": "string",
          "name": "_productId",
          "type": "string"
        },
        {
          "internalType": "uint256",
          "name": "_repairIndex",
          "type": "uint256"
        }
      ],
      "name": "verifyRepair",
      "outputs": [],
      "stateMutability": "nonpayable",
      "type": "function"
    }
  ],
  "bytecode": "0x60806040523480156200001157600080fd5b50336000806101000a81548173ffffffffffffffffffffffffffffffffffffffff021916908373ffffffffffffffffffffffffffffffffffffffff1602179055506001600460003373ffffffffffffffffffffffffffffffffffffffff1673ffffffffffffffffffffffffffffffffffffffff16815260200190815260200160002060006101000a81548160ff02191690836003811115620000b857620000b7620000c3565b5b0217905550620000f2565b7f4e487b7100000000000000000000000000000000000000000000000000000000600052602160045260246000fd5b61425880620001026000396000f3fe608060405234801561001057600080fd5b506004361061012c5760003560e01c80638799d6fc116100ad578063c4d6ac9811610071578063c4d6ac9814610367578063cb51bba914610397578063f07b0278146103c7578063f4ee664c146103fa578063f851a440146104165761012c565b80638799d6fc146102c557806399374642146102e15780639b9d326d14610311578063b3473caa1461032f578063c0e793c21461034b5761012c565b806368111cce116100f457806368111cce146101e15780636dafee6d146102115780637bf5daa51461022d5780637f2816351461025d5780638615cb471461028d5761012c565b80630186a423146101315780633bf47720146101695780634a348da9146101875780634ec4f23f146101a5578063663c01af146101c3575b600080fd5b61014b60048036038101906101469190612af3565b610434565b60405161016099989796959493929190612c30565b60405180910390f35b61017161067d565b60405161017e9190612cd2565b60405180910390f35b61018f610683565b60405161019c9190612cd2565b60405180910390f35b6101ad61068d565b6040516101ba9190612cd2565b60405180910390f35b6101cb610693565b6040516101d89190612df9565b60405180910390f35b6101fb60048036038101906101f69190612af3565b61076c565b6040516102089190612f1b565b60405180910390f35b61022b60048036038101906102269190612f8e565b610aae565b005b61024760048036038101906102429190612af3565b610c43565b6040516102549190613217565b60405180910390f35b61027760048036038101906102729190613239565b611051565b6040516102849190613266565b60405180910390f35b6102a760048036038101906102a291906132b4565b6110f1565b6040516102bc9998979695949392919061331f565b60405180910390f35b6102df60048036038101906102da91906133cf565b611454565b005b6102fb60048036038101906102f69190613239565b611877565b60405161030891906134ee565b60405180910390f35b610319611897565b6040516103269190612cd2565b60405180910390f35b610349600480360381019061034491906132b4565b61189d565b005b61036560048036038101906103609190613509565b611c01565b005b610381600480360381019061037c9190612af3565b6120a0565b60405161038e919061368a565b60405180910390f35b6103b160048036038101906103ac91906136ac565b612265565b6040516103be9190613266565b60405180910390f35b6103e160048036038101906103dc91906132b4565b612311565b6040516103f194939291906136d9565b60405180910390f35b610414600480360381019061040f9190613725565b61243c565b005b61041e6128fb565b60405161042b919061382c565b60405180910390f35b60018180516020810182018051848252602083016020850120818352809550505050505060009150905080600001805461046d90613876565b80601f016020809104026020016040519081016040528092919081815260200182805461049990613876565b80156104e65780601f106104bb576101008083540402835291602001916104e6565b820191906000526020600020905b8154815290600101906020018083116104c957829003601f168201915b5050505050908060010180546104fb90613876565b80601f016020809104026020016040519081016040528092919081815260200182805461052790613876565b80156105745780601f1061054957610100808354040283529160200191610574565b820191906000526020600020905b81548152906001019060200180831161055757829003601f168201915b50505050509080600201805461058990613876565b80601f01602080910402602001604051908101604052809291908181526020018280546105b590613876565b80156106025780601f106105d757610100808354040283529160200191610602565b820191906000526020600020905b8154815290600101906020018083116105e557829003601f168201915b5050505050908060030160009054906101000a900473ffffffffffffffffffffffffffffffffffffffff16908060040160009054906101000a900473ffffffffffffffffffffffffffffffffffffffff16908060050154908060060160009054906101000a900460ff16908060070154908060080154905089565b60095481565b6000600754905090565b60085481565b60606006805480602002602001604051908101604052809291908181526020016000905b828210156107635783829060005260206000200180546106d690613876565b80601f016020809104026020016040519081016040528092919081815260200182805461070290613876565b801561074f5780601f106107245761010080835404028352916020019161074f565b820191906000526020600020905b81548152906001019060200180831161073257829003601f168201915b5050505050815260200190600101906106b7565b50505050905090565b61077461291f565b60018260405161078491906138e3565b908152602001604051809103902060060160009054906101000a900460ff166107e2576040517f08c379a00000000000000000000000000000000000000000000000000000000081526004016107d990613946565b60405180910390fd5b6001826040516107f291906138e3565b90815260200160405180910390206040518061012001604052908160008201805461081c90613876565b80601f016020809104026020016040519081016040528092919081815260200182805461084890613876565b80156108955780601f1061086a57610100808354040283529160200191610895565b820191906000526020600020905b81548152906001019060200180831161087857829003601f168201915b505050505081526020016001820180546108ae90613876565b80601f01602080910402602001604051908101604052809291908181526020018280546108da90613876565b80156109275780601f106108fc57610100808354040283529160200191610927565b820191906000526020600020905b81548152906001019060200180831161090a57829003601f168201915b5050505050815260200160028201805461094090613876565b80601f016020809104026020016040519081016040528092919081815260200182805461096c90613876565b80156109b95780601f1061098e576101008083540402835291602001916109b9565b820191906000526020600020905b81548152906001019060200180831161099c57829003601f168201915b505050505081526020016003820160009054906101000a900473ffffffffffffffffffffffffffffffffffffffff1673ffffffffffffffffffffffffffffffffffffffff1673ffffffffffffffffffffffffffffffffffffffff1681526020016004820160009054906101000a900473ffffffffffffffffffffffffffffffffffffffff1673ffffffffffffffffffffffffffffffffffffffff1673ffffffffffffffffffffffffffffffffffffffff168152602001600582015481526020016006820160009054906101000a900460ff16151515158152602001600782015481526020016008820154815250509050919050565b60008054906101000a900473ffffffffffffffffffffffffffffffffffffffff1673ffffffffffffffffffffffffffffffffffffffff163373ffffffffffffffffffffffffffffffffffffffff1614610b3c576040517f08c379a0000000000000000000000000000000000000000000000000000000008152600401610b33906139d8565b60405180910390fd5b81600460008573ffffffffffffffffffffffffffffffffffffffff1673ffffffffffffffffffffffffffffffffffffffff16815260200190815260200160002060006101000a81548160ff02191690836003811115610b9e57610b9d613029565b5b021790555080600560008573ffffffffffffffffffffffffffffffffffffffff1673ffffffffffffffffffffffffffffffffffffffff1681526020019081526020016000209081610bef9190613ba4565b508273ffffffffffffffffffffffffffffffffffffffff167f4ac36fa53f167ceb85964be512e01de2a3b8bdb9862f917da079deeeff689b3883604051610c3691906134ee565b60405180910390a2505050565b6060600282604051610c5591906138e3565b9081526020016040518091039020805480602002602001604051908101604052809291908181526020016000905b82821015611046578382906000526020600020906008020160405180610120016040529081600082018054610cb790613876565b80601f0160208091040260200160405190810160405280929190818152602001828054610ce390613876565b8015610d305780601f10610d0557610100808354040283529160200191610d30565b820191906000526020600020905b815481529060010190602001808311610d1357829003601f168201915b505050505081526020016001820160009054906101000a900473ffffffffffffffffffffffffffffffffffffffff1673ffffffffffffffffffffffffffffffffffffffff1673ffffffffffffffffffffffffffffffffffffffff168152602001600282018054610d9f90613876565b80601f0160208091040260200160405190810160405280929190818152602001828054610dcb90613876565b8015610e185780601f10610ded57610100808354040283529160200191610e18565b820191906000526020600020905b815481529060010190602001808311610dfb57829003601f168201915b50505050508152602001600382018054610e3190613876565b80601f0160208091040260200160405190810160405280929190818152602001828054610e5d90613876565b8015610eaa5780601f10610e7f57610100808354040283529160200191610eaa565b820191906000526020600020905b815481529060010190602001808311610e8d57829003601f168201915b50505050508152602001600482018054610ec390613876565b80601f0160208091040260200160405190810160405280929190818152602001828054610eef90613876565b8015610f3c5780601f10610f1157610100808354040283529160200191610f3c565b820191906000526020600020905b815481529060010190602001808311610f1f57829003601f168201915b50505050508152602001600582018054610f5590613876565b80601f0160208091040260200160405190810160405280929190818152602001828054610f8190613876565b8015610fce5780601f10610fa357610100808354040283529160200191610fce565b820191906000526020600020905b815481529060010190602001808311610fb157829003601f168201915b50505050508152602001600682015481526020016007820160009054906101000a900460ff16600281111561100657611005613029565b5b600281111561101857611017613029565b5b81526020016007820160019054906101000a900460ff16151515158152505081526020019060010190610c83565b505050509050919050565b6005602052806000526040600020600091509050805461107090613876565b80601f016020809104026020016040519081016040528092919081815260200182805461109c90613876565b80156110e95780601f106110be576101008083540402835291602001916110e9565b820191906000526020600020905b8154815290600101906020018083116110cc57829003601f168201915b505050505081565b600282805160208101820180518482526020830160208501208183528095505050505050818154811061112357600080fd5b90600052602060002090600802016000915091505080600001805461114790613876565b80601f016020809104026020016040519081016040528092919081815260200182805461117390613876565b80156111c05780601f10611195576101008083540402835291602001916111c0565b820191906000526020600020905b8154815290600101906020018083116111a357829003601f168201915b5050505050908060010160009054906101000a900473ffffffffffffffffffffffffffffffffffffffff16908060020180546111fb90613876565b80601f016020809104026020016040519081016040528092919081815260200182805461122790613876565b80156112745780601f1061124957610100808354040283529160200191611274565b820191906000526020600020905b81548152906001019060200180831161125757829003601f168201915b50505050509080600301805461128990613876565b80601f01602080910402602001604051908101604052809291908181526020018280546112b590613876565b80156113025780601f106112d757610100808354040283529160200191611302565b820191906000526020600020905b8154815290600101906020018083116112e557829003601f168201915b50505050509080600401805461131790613876565b80601f016020809104026020016040519081016040528092919081815260200182805461134390613876565b80156113905780601f1061136557610100808354040283529160200191611390565b820191906000526020600020905b81548152906001019060200180831161137357829003601f168201915b5050505050908060050180546113a590613876565b80601f01602080910402602001604051908101604052809291908181526020018280546113d190613876565b801561141e5780601f106113f35761010080835404028352916020019161141e565b820191906000526020600020905b81548152906001019060200180831161140157829003601f168201915b5050505050908060060154908060070160009054906101000a900460ff16908060070160019054906101000a900460ff16905089565b6001600381111561146857611467613029565b5b600460003373ffffffffffffffffffffffffffffffffffffffff1673ffffffffffffffffffffffffffffffffffffffff16815260200190815260200160002060009054906101000a900460ff1660038111156114c7576114c6613029565b5b148061151e575060008054906101000a900473ffffffffffffffffffffffffffffffffffffffff1673ffffffffffffffffffffffffffffffffffffffff163373ffffffffffffffffffffffffffffffffffffffff16145b61155d576040517f08c379a000000000000000000000000000000000000000000000000000000000815260040161155490613ce8565b60405180910390fd5b60018460405161156d91906138e3565b908152602001604051809103902060060160009054906101000a900460ff16156115cc576040517f08c379a00000000000000000000000000000000000000000000000000000000081526004016115c390613d54565b60405180910390fd5b6040518061012001604052808581526020018481526020018381526020013373ffffffffffffffffffffffffffffffffffffffff1681526020013373ffffffffffffffffffffffffffffffffffffffff16815260200142815260200160011515815260200160008152602001600081525060018560405161164d91906138e3565b908152602001604051809103902060008201518160000190816116709190613ba4565b5060208201518160010190816116869190613ba4565b50604082015181600201908161169c9190613ba4565b5060608201518160030160006101000a81548173ffffffffffffffffffffffffffffffffffffffff021916908373ffffffffffffffffffffffffffffffffffffffff16021790555060808201518160040160006101000a81548173ffffffffffffffffffffffffffffffffffffffff021916908373ffffffffffffffffffffffffffffffffffffffff16021790555060a0820151816005015560c08201518160060160006101000a81548160ff02191690831515021790555060e08201518160070155610100820151816008015590505080600560003373ffffffffffffffffffffffffffffffffffffffff1673ffffffffffffffffffffffffffffffffffffffff16815260200190815260200160002090816117b99190613ba4565b506006849080600181540180825580915050600190039060005260206000200160009091909190915090816117ee9190613ba4565b506007600081548092919061180290613da3565b91905055503373ffffffffffffffffffffffffffffffffffffffff168460405161182c91906138e3565b60405180910390207f8b861df145d07ad221a9b1d58528416332d16e4102e8fbcf5f048f7bf995521a858542436040516118699493929190613deb565b60405180910390a350505050565b60046020528060005260406000206000915054906101000a900460ff1681565b60075481565b816001816040516118ae91906138e3565b908152602001604051809103902060060160009054906101000a900460ff1661190c576040517f08c379a000000000000000000000000000000000000000000000000000000000815260040161190390613946565b60405180910390fd5b600260038111156119205761191f613029565b5b600460003373ffffffffffffffffffffffffffffffffffffffff1673ffffffffffffffffffffffffffffffffffffffff16815260200190815260200160002060009054906101000a900460ff16600381111561197f5761197e613029565b5b14806119d6575060008054906101000a900473ffffffffffffffffffffffffffffffffffffffff1673ffffffffffffffffffffffffffffffffffffffff163373ffffffffffffffffffffffffffffffffffffffff16145b611a15576040517f08c379a0000000000000000000000000000000000000000000000000000000008152600401611a0c90613eb0565b60405180910390fd5b600283604051611a2591906138e3565b9081526020016040518091039020805490508210611a78576040517f08c379a0000000000000000000000000000000000000000000000000000000008152600401611a6f90613f1c565b60405180910390fd5b600280811115611a8b57611a8a613029565b5b600284604051611a9b91906138e3565b90815260200160405180910390208381548110611abb57611aba613f3c565b5b906000526020600020906008020160070160009054906101000a900460ff166002811115611aec57611aeb613029565b5b14611b2c576040517f08c379a0000000000000000000000000000000000000000000000000000000008152600401611b2390613fb7565b60405180910390fd5b6001600284604051611b3e91906138e3565b90815260200160405180910390208381548110611b5e57611b5d613f3c565b5b906000526020600020906008020160070160006101000a81548160ff02191690836002811115611b9157611b90613029565b5b02179055503373ffffffffffffffffffffffffffffffffffffffff1683604051611bbb91906138e3565b60405180910390207fc99f67d093adfca182daeeecac30fce3dd8973c4b47cc63e18a6bcc578579ab58442604051611bf4929190613fd7565b60405180910390a3505050565b81600181604051611c1291906138e3565b908152602001604051809103902060060160009054906101000a900460ff16611c70576040517f08c379a0000000000000000000000000000000000000000000000000000000008152600401611c6790613946565b60405180910390fd5b3373ffffffffffffffffffffffffffffffffffffffff16600184604051611c9791906138e3565b908152602001604051809103902060030160009054906101000a900473ffffffffffffffffffffffffffffffffffffffff1673ffffffffffffffffffffffffffffffffffffffff161480611d36575060008054906101000a900473ffffffffffffffffffffffffffffffffffffffff1673ffffffffffffffffffffffffffffffffffffffff163373ffffffffffffffffffffffffffffffffffffffff16145b611d75576040517f08c379a0000000000000000000000000000000000000000000000000000000008152600401611d6c9061404c565b60405180910390fd5b600073ffffffffffffffffffffffffffffffffffffffff168273ffffffffffffffffffffffffffffffffffffffff1603611de4576040517f08c379a0000000000000000000000000000000000000000000000000000000008152600401611ddb906140b8565b60405180910390fd5b6000600184604051611df691906138e3565b908152602001604051809103902060030160009054906101000a900473ffffffffffffffffffffffffffffffffffffffff169050600384604051611e3a91906138e3565b908152602001604051809103902060405180608001604052808681526020018373ffffffffffffffffffffffffffffffffffffffff1681526020018573ffffffffffffffffffffffffffffffffffffffff1681526020014281525090806001815401808255809150506001900390600052602060002090600402016000909190919091506000820151816000019081611ed39190613ba4565b5060208201518160010160006101000a81548173ffffffffffffffffffffffffffffffffffffffff021916908373ffffffffffffffffffffffffffffffffffffffff16021790555060408201518160020160006101000a81548173ffffffffffffffffffffffffffffffffffffffff021916908373ffffffffffffffffffffffffffffffffffffffff16021790555060608201518160030155505082600185604051611f7f91906138e3565b908152602001604051809103902060030160006101000a81548173ffffffffffffffffffffffffffffffffffffffff021916908373ffffffffffffffffffffffffffffffffffffffff160217905550600184604051611fde91906138e3565b9081526020016040518091039020600801600081548092919061200090613da3565b91905055506009600081548092919061201890613da3565b91905055508273ffffffffffffffffffffffffffffffffffffffff168173ffffffffffffffffffffffffffffffffffffffff168560405161205991906138e3565b60405180910390207fa2aa300253a59b0d14a39bbc97f6f2b03233d01b5957681c184fb6df9c8d908c4243604051612092929190613fd7565b60405180910390a450505050565b60606003826040516120b291906138e3565b9081526020016040518091039020805480602002602001604051908101604052809291908181526020016000905b8282101561225a578382906000526020600020906004020160405180608001604052908160008201805461211390613876565b80601f016020809104026020016040519081016040528092919081815260200182805461213f90613876565b801561218c5780601f106121615761010080835404028352916020019161218c565b820191906000526020600020905b81548152906001019060200180831161216f57829003601f168201915b505050505081526020016001820160009054906101000a900473ffffffffffffffffffffffffffffffffffffffff1673ffffffffffffffffffffffffffffffffffffffff1673ffffffffffffffffffffffffffffffffffffffff1681526020016002820160009054906101000a900473ffffffffffffffffffffffffffffffffffffffff1673ffffffffffffffffffffffffffffffffffffffff1673ffffffffffffffffffffffffffffffffffffffff168152602001600382015481525050815260200190600101906120e0565b505050509050919050565b6006818154811061227557600080fd5b90600052602060002001600091509050805461229090613876565b80601f01602080910402602001604051908101604052809291908181526020018280546122bc90613876565b80156123095780601f106122de57610100808354040283529160200191612309565b820191906000526020600020905b8154815290600101906020018083116122ec57829003601f168201915b505050505081565b600382805160208101820180518482526020830160208501208183528095505050505050818154811061234357600080fd5b90600052602060002090600402016000915091505080600001805461236790613876565b80601f016020809104026020016040519081016040528092919081815260200182805461239390613876565b80156123e05780601f106123b5576101008083540402835291602001916123e0565b820191906000526020600020905b8154815290600101906020018083116123c357829003601f168201915b5050505050908060010160009054906101000a900473ffffffffffffffffffffffffffffffffffffffff16908060020160009054906101000a900473ffffffffffffffffffffffffffffffffffffffff16908060030154905084565b8460018160405161244d91906138e3565b908152602001604051809103902060060160009054906101000a900460ff166124ab576040517f08c379a00000000000000000000000000000000000000000000000000000000081526004016124a290613946565b60405180910390fd5b600080600260038111156124c2576124c1613029565b5b600460003373ffffffffffffffffffffffffffffffffffffffff1673ffffffffffffffffffffffffffffffffffffffff16815260200190815260200160002060009054906101000a900460ff16600381111561252157612520613029565b5b1480612578575060008054906101000a900473ffffffffffffffffffffffffffffffffffffffff1673ffffffffffffffffffffffffffffffffffffffff163373ffffffffffffffffffffffffffffffffffffffff16145b1561258a576001915060009050612642565b3373ffffffffffffffffffffffffffffffffffffffff166001896040516125b191906138e3565b908152602001604051809103902060030160009054906101000a900473ffffffffffffffffffffffffffffffffffffffff1673ffffffffffffffffffffffffffffffffffffffff1614612639576040517f08c379a00000000000000000000000000000000000000000000000000000000081526004016126309061414a565b60405180910390fd5b60029150600190505b60028860405161265291906138e3565b90815260200160405180910390206040518061012001604052808a81526020013373ffffffffffffffffffffffffffffffffffffffff1681526020018981526020018881526020018781526020018681526020014281526020018460028111156126bf576126be613029565b5b8152602001831515815250908060018154018082558091505060019003906000526020600020906008020160009091909190915060008201518160000190816127089190613ba4565b5060208201518160010160006101000a81548173ffffffffffffffffffffffffffffffffffffffff021916908373ffffffffffffffffffffffffffffffffffffffff16021790555060408201518160020190816127659190613ba4565b50606082015181600301908161277b9190613ba4565b5060808201518160040190816127919190613ba4565b5060a08201518160050190816127a79190613ba4565b5060c0820151816006015560e08201518160070160006101000a81548160ff021916908360028111156127dd576127dc613029565b5b02179055506101008201518160070160016101000a81548160ff021916908315150217905550505060018860405161281591906138e3565b9081526020016040518091039020600701600081548092919061283790613da3565b91905055506008600081548092919061284f90613da3565b91905055503373ffffffffffffffffffffffffffffffffffffffff168860405161287991906138e3565b60405180910390207fb4c0340c6f78e7f20dce5b5bdf1f95f1a65be1b289d7adbfb82b6c79262617cc600160028c6040516128b491906138e3565b9081526020016040518091039020805490506128d0919061416a565b8a8a894288436040516128e9979695949392919061419e565b60405180910390a35050505050505050565b60008054906101000a900473ffffffffffffffffffffffffffffffffffffffff1681565b604051806101200160405280606081526020016060815260200160608152602001600073ffffffffffffffffffffffffffffffffffffffff168152602001600073ffffffffffffffffffffffffffffffffffffffff1681526020016000815260200160001515815260200160008152602001600081525090565b6000604051905090565b600080fd5b600080fd5b600080fd5b600080fd5b6000601f19601f8301169050919050565b7f4e487b7100000000000000000000000000000000000000000000000000000000600052604160045260246000fd5b612a00826129b7565b810181811067ffffffffffffffff82111715612a1f57612a1e6129c8565b5b80604052505050565b6000612a32612999565b9050612a3e82826129f7565b919050565b600067ffffffffffffffff821115612a5e57612a5d6129c8565b5b612a67826129b7565b9050602081019050919050565b82818337600083830152505050565b6000612a96612a9184612a43565b612a28565b905082815260208101848484011115612ab257612ab16129b2565b5b612abd848285612a74565b509392505050565b600082601f830112612ada57612ad96129ad565b5b8135612aea848260208601612a83565b91505092915050565b600060208284031215612b0957612b086129a3565b5b600082013567ffffffffffffffff811115612b2757612b266129a8565b5b612b3384828501612ac5565b91505092915050565b600081519050919050565b600082825260208201905092915050565b60005b83811015612b76578082015181840152602081019050612b5b565b60008484015250505050565b6000612b8d82612b3c565b612b978185612b47565b9350612ba7818560208601612b58565b612bb0816129b7565b840191505092915050565b600073ffffffffffffffffffffffffffffffffffffffff82169050919050565b6000612be682612bbb565b9050919050565b612bf681612bdb565b82525050565b6000819050919050565b612c0f81612bfc565b82525050565b60008115159050919050565b612c2a81612c15565b82525050565b6000610120820190508181036000830152612c4b818c612b82565b90508181036020830152612c5f818b612b82565b90508181036040830152612c73818a612b82565b9050612c826060830189612bed565b612c8f6080830188612bed565b612c9c60a0830187612c06565b612ca960c0830186612c21565b612cb660e0830185612c06565b612cc4610100830184612c06565b9a9950505050505050505050565b6000602082019050612ce76000830184612c06565b92915050565b600081519050919050565b600082825260208201905092915050565b6000819050602082019050919050565b600082825260208201905092915050565b6000612d3582612b3c565b612d3f8185612d19565b9350612d4f818560208601612b58565b612d58816129b7565b840191505092915050565b6000612d6f8383612d2a565b905092915050565b6000602082019050919050565b6000612d8f82612ced565b612d998185612cf8565b935083602082028501612dab85612d09565b8060005b85811015612de75784840389528151612dc88582612d63565b9450612dd383612d77565b925060208a01995050600181019050612daf565b50829750879550505050505092915050565b60006020820190508181036000830152612e138184612d84565b905092915050565b612e2481612bdb565b82525050565b612e3381612bfc565b82525050565b612e4281612c15565b82525050565b6000610120830160008301518482036000860152612e668282612d2a565b91505060208301518482036020860152612e808282612d2a565b91505060408301518482036040860152612e9a8282612d2a565b9150506060830151612eaf6060860182612e1b565b506080830151612ec26080860182612e1b565b5060a0830151612ed560a0860182612e2a565b5060c0830151612ee860c0860182612e39565b5060e0830151612efb60e0860182612e2a565b50610100830151612f10610100860182612e2a565b508091505092915050565b60006020820190508181036000830152612f358184612e48565b905092915050565b612f4681612bdb565b8114612f5157600080fd5b50565b600081359050612f6381612f3d565b92915050565b60048110612f7657600080fd5b50565b600081359050612f8881612f69565b92915050565b600080600060608486031215612fa757612fa66129a3565b5b6000612fb586828701612f54565b9350506020612fc686828701612f79565b925050604084013567ffffffffffffffff811115612fe757612fe66129a8565b5b612ff386828701612ac5565b9150509250925092565b600081519050919050565b600082825260208201905092915050565b6000819050602082019050919050565b7f4e487b7100000000000000000000000000000000000000000000000000000000600052602160045260246000fd5b6003811061306957613068613029565b5b50565b600081905061307a82613058565b919050565b600061308a8261306c565b9050919050565b61309a8161307f565b82525050565b60006101208301600083015184820360008601526130be8282612d2a565b91505060208301516130d36020860182612e1b565b50604083015184820360408601526130eb8282612d2a565b915050606083015184820360608601526131058282612d2a565b9150506080830151848203608086015261311f8282612d2a565b91505060a083015184820360a08601526131398282612d2a565b91505060c083015161314e60c0860182612e2a565b5060e083015161316160e0860182613091565b50610100830151613176610100860182612e39565b508091505092915050565b600061318d83836130a0565b905092915050565b6000602082019050919050565b60006131ad82612ffd565b6131b78185613008565b9350836020820285016131c985613019565b8060005b8581101561320557848403895281516131e68582613181565b94506131f183613195565b925060208a019950506001810190506131cd565b50829750879550505050505092915050565b6000602082019050818103600083015261323181846131a2565b905092915050565b60006020828403121561324f5761324e6129a3565b5b600061325d84828501612f54565b91505092915050565b600060208201905081810360008301526132808184612b82565b905092915050565b61329181612bfc565b811461329c57600080fd5b50565b6000813590506132ae81613288565b92915050565b600080604083850312156132cb576132ca6129a3565b5b600083013567ffffffffffffffff8111156132e9576132e86129a8565b5b6132f585828601612ac5565b92505060206133068582860161329f565b9150509250929050565b6133198161307f565b82525050565b600061012082019050818103600083015261333a818c612b82565b9050613349602083018b612bed565b818103604083015261335b818a612b82565b9050818103606083015261336f8189612b82565b905081810360808301526133838188612b82565b905081810360a08301526133978187612b82565b90506133a660c0830186612c06565b6133b360e0830185613310565b6133c1610100830184612c21565b9a9950505050505050505050565b600080600080608085870312156133e9576133e86129a3565b5b600085013567ffffffffffffffff811115613407576134066129a8565b5b61341387828801612ac5565b945050602085013567ffffffffffffffff811115613434576134336129a8565b5b61344087828801612ac5565b935050604085013567ffffffffffffffff811115613461576134606129a8565b5b61346d87828801612ac5565b925050606085013567ffffffffffffffff81111561348e5761348d6129a8565b5b61349a87828801612ac5565b91505092959194509250565b600481106134b7576134b6613029565b5b50565b60008190506134c8826134a6565b919050565b60006134d8826134ba565b9050919050565b6134e8816134cd565b82525050565b600060208201905061350360008301846134df565b92915050565b600080604083850312156135205761351f6129a3565b5b600083013567ffffffffffffffff81111561353e5761353d6129a8565b5b61354a85828601612ac5565b925050602061355b85828601612f54565b9150509250929050565b600081519050919050565b600082825260208201905092915050565b6000819050602082019050919050565b600060808301600083015184820360008601526135ae8282612d2a565b91505060208301516135c36020860182612e1b565b5060408301516135d66040860182612e1b565b5060608301516135e96060860182612e2a565b508091505092915050565b60006136008383613591565b905092915050565b6000602082019050919050565b600061362082613565565b61362a8185613570565b93508360208202850161363c85613581565b8060005b85811015613678578484038952815161365985826135f4565b945061366483613608565b925060208a01995050600181019050613640565b50829750879550505050505092915050565b600060208201905081810360008301526136a48184613615565b905092915050565b6000602082840312156136c2576136c16129a3565b5b60006136d08482850161329f565b91505092915050565b600060808201905081810360008301526136f38187612b82565b90506137026020830186612bed565b61370f6040830185612bed565b61371c6060830184612c06565b95945050505050565b600080600080600060a08688031215613741576137406129a3565b5b600086013567ffffffffffffffff81111561375f5761375e6129a8565b5b61376b88828901612ac5565b955050602086013567ffffffffffffffff81111561378c5761378b6129a8565b5b61379888828901612ac5565b945050604086013567ffffffffffffffff8111156137b9576137b86129a8565b5b6137c588828901612ac5565b935050606086013567ffffffffffffffff8111156137e6576137e56129a8565b5b6137f288828901612ac5565b925050608086013567ffffffffffffffff811115613813576138126129a8565b5b61381f88828901612ac5565b9150509295509295909350565b60006020820190506138416000830184612bed565b92915050565b7f4e487b7100000000000000000000000000000000000000000000000000000000600052602260045260246000fd5b6000600282049050600182168061388e57607f821691505b6020821081036138a1576138a0613847565b5b50919050565b600081905092915050565b60006138bd82612b3c565b6138c781856138a7565b93506138d7818560208601612b58565b80840191505092915050565b60006138ef82846138b2565b915081905092915050565b7f50726f6475637420646f6573206e6f7420657869737400000000000000000000600082015250565b6000613930601683612b47565b915061393b826138fa565b602082019050919050565b6000602082019050818103600083015261395f81613923565b9050919050565b7f4f6e6c792061646d696e2063616e20706572666f726d2074686973206163746960008201527f6f6e000000000000000000000000000000000000000000000000000000000000602082015250565b60006139c2602283612b47565b91506139cd82613966565b604082019050919050565b600060208201905081810360008301526139f1816139b5565b9050919050565b60008190508160005260206000209050919050565b60006020601f8301049050919050565b600082821b905092915050565b600060088302613a5a7fffffffffffffffffffffffffffffffffffffffffffffffffffffffffffffffff82613a1d565b613a648683613a1d565b95508019841693508086168417925050509392505050565b6000819050919050565b6000613aa1613a9c613a9784612bfc565b613a7c565b612bfc565b9050919050565b6000819050919050565b613abb83613a86565b613acf613ac782613aa8565b848454613a2a565b825550505050565b600090565b613ae4613ad7565b613aef818484613ab2565b505050565b5b81811015613b1357613b08600082613adc565b600181019050613af5565b5050565b601f821115613b5857613b29816139f8565b613b3284613a0d565b81016020851015613b41578190505b613b55613b4d85613a0d565b830182613af4565b50505b505050565b600082821c905092915050565b6000613b7b60001984600802613b5d565b1980831691505092915050565b6000613b948383613b6a565b9150826002028217905092915050565b613bad82612b3c565b67ffffffffffffffff811115613bc657613bc56129c8565b5b613bd08254613876565b613bdb828285613b17565b600060209050601f831160018114613c0e5760008415613bfc578287015190505b613c068582613b88565b865550613c6e565b601f198416613c1c866139f8565b60005b82811015613c4457848901518255600182019150602085019450602081019050613c1f565b86831015613c615784890151613c5d601f891682613b6a565b8355505b6001600288020188555050505b505050505050565b7f4f6e6c79206d616e756661637475726572732063616e2072656769737465722060008201527f70726f6475637473000000000000000000000000000000000000000000000000602082015250565b6000613cd2602883612b47565b9150613cdd82613c76565b604082019050919050565b60006020820190508181036000830152613d0181613cc5565b9050919050565b7f50726f6475637420616c72656164792072656769737465726564000000000000600082015250565b6000613d3e601a83612b47565b9150613d4982613d08565b602082019050919050565b60006020820190508181036000830152613d6d81613d31565b9050919050565b7f4e487b7100000000000000000000000000000000000000000000000000000000600052601160045260246000fd5b6000613dae82612bfc565b91507fffffffffffffffffffffffffffffffffffffffffffffffffffffffffffffffff8203613de057613ddf613d74565b5b600182019050919050565b60006080820190508181036000830152613e058187612b82565b90508181036020830152613e198186612b82565b9050613e286040830185612c06565b613e356060830184612c06565b95945050505050565b7f4f6e6c7920617574686f72697a6564207265706169722063656e74657273206360008201527f616e206c6f672072657061697273000000000000000000000000000000000000602082015250565b6000613e9a602e83612b47565b9150613ea582613e3e565b604082019050919050565b60006020820190508181036000830152613ec981613e8d565b9050919050565b7f496e76616c69642072657061697220696e646578000000000000000000000000600082015250565b6000613f06601483612b47565b9150613f1182613ed0565b602082019050919050565b60006020820190508181036000830152613f3581613ef9565b9050919050565b7f4e487b7100000000000000000000000000000000000000000000000000000000600052603260045260246000fd5b7f526570616972206973206e6f742073656c662d7265706f727465640000000000600082015250565b6000613fa1601b83612b47565b9150613fac82613f6b565b602082019050919050565b60006020820190508181036000830152613fd081613f94565b9050919050565b6000604082019050613fec6000830185612c06565b613ff96020830184612c06565b9392505050565b7f4f6e6c792063757272656e74206f776e65722063616e207472616e7366657200600082015250565b6000614036601f83612b47565b915061404182614000565b602082019050919050565b6000602082019050818103600083015261406581614029565b9050919050565b7f496e76616c6964206e6577206f776e6572206164647265737300000000000000600082015250565b60006140a2601983612b47565b91506140ad8261406c565b602082019050919050565b600060208201905081810360008301526140d181614095565b9050919050565b7f4f6e6c792070726f64756374206f776e65722063616e2073656c662d7265706f60008201527f7274207265706169727300000000000000000000000000000000000000000000602082015250565b6000614134602a83612b47565b915061413f826140d8565b604082019050919050565b6000602082019050818103600083015261416381614127565b9050919050565b600061417582612bfc565b915061418083612bfc565b925082820390508181111561419857614197613d74565b5b92915050565b600060e0820190506141b3600083018a612c06565b81810360208301526141c58189612b82565b905081810360408301526141d98188612b82565b905081810360608301526141ed8187612b82565b90506141fc6080830186612c06565b61420960a0830185612c21565b61421660c0830184612c06565b9897505050505050505056fea26469706673582212203105105ed44c1aba0494ef5e6e85ad8b18ea97e25bb78a28379a15802d0a455a64736f6c63430008140033",
  "linkReferences": {},
  "deployedLinkReferences": {}
}